{
  "_format": "hh-sol-artifact-1",
  "contractName": "Lock",
  "sourceName": "contracts/Lock.sol",
  "abi": [
    {
      "inputs": [
        {
          "internalType": "address",
          "name": "tokenAdress",
          "type": "address"
        }
      ],
      "stateMutability": "nonpayable",
      "type": "constructor"
    },
    {
      "inputs": [
        {
          "internalType": "uint256",
          "name": "amount",
          "type": "uint256"
        }
      ],
      "name": "lockTokens",
      "outputs": [],
      "stateMutability": "nonpayable",
      "type": "function"
    },
    {
      "inputs": [],
      "name": "lockerCount",
      "outputs": [
        {
          "internalType": "uint256",
          "name": "",
          "type": "uint256"
        }
      ],
      "stateMutability": "view",
      "type": "function"
    },
    {
      "inputs": [
        {
          "internalType": "address",
          "name": "",
          "type": "address"
        }
      ],
      "name": "lockers",
      "outputs": [
        {
          "internalType": "uint256",
          "name": "",
          "type": "uint256"
        }
      ],
      "stateMutability": "view",
      "type": "function"
    },
    {
      "inputs": [],
      "name": "totalLocked",
      "outputs": [
        {
          "internalType": "uint256",
          "name": "",
          "type": "uint256"
        }
      ],
      "stateMutability": "view",
      "type": "function"
    },
    {
      "inputs": [],
      "name": "withdrawTokens",
      "outputs": [],
      "stateMutability": "nonpayable",
      "type": "function"
    }
  ],
  "bytecode": "0x608060405234801561001057600080fd5b50604051610b7c380380610b7c8339818101604052810190610032919061008d565b806000806101000a81548173ffffffffffffffffffffffffffffffffffffffff021916908373ffffffffffffffffffffffffffffffffffffffff160217905550506100ff565b600081519050610087816100e8565b92915050565b60006020828403121561009f57600080fd5b60006100ad84828501610078565b91505092915050565b60006100c1826100c8565b9050919050565b600073ffffffffffffffffffffffffffffffffffffffff82169050919050565b6100f1816100b6565b81146100fc57600080fd5b50565b610a6e8061010e6000396000f3fe608060405234801561001057600080fd5b50600436106100575760003560e01c80632c8e7a211461005c578063568914121461008c5780636e27d889146100aa5780638d8f2adb146100c6578063ccd96eb6146100d0575b600080fd5b61007660048036038101906100719190610584565b6100ee565b6040516100839190610789565b60405180910390f35b610094610106565b6040516100a19190610789565b60405180910390f35b6100c460048036038101906100bf91906105d6565b61010c565b005b6100ce610316565b005b6100d861053f565b6040516100e59190610789565b60405180910390f35b60036020528060005260406000206000915090505481565b60025481565b6000811161014f576040517f08c379a000000000000000000000000000000000000000000000000000000000815260040161014690610749565b60405180910390fd5b6000600360003373ffffffffffffffffffffffffffffffffffffffff1673ffffffffffffffffffffffffffffffffffffffff16815260200190815260200160002054116101af57600160008154809291906101a9906108b1565b91905055505b80600260008282546101c191906107b5565b9250508190555080600360003373ffffffffffffffffffffffffffffffffffffffff1673ffffffffffffffffffffffffffffffffffffffff168152602001908152602001600020600082825461021791906107b5565b9250508190555060008060009054906101000a900473ffffffffffffffffffffffffffffffffffffffff1673ffffffffffffffffffffffffffffffffffffffff166323b872dd3330856040518463ffffffff1660e01b815260040161027e939291906106a9565b602060405180830381600087803b15801561029857600080fd5b505af11580156102ac573d6000803e3d6000fd5b505050506040513d601f19601f820116820180604052508101906102d091906105ad565b905080610312576040517f08c379a000000000000000000000000000000000000000000000000000000000815260040161030990610709565b60405180910390fd5b5050565b6000600360003373ffffffffffffffffffffffffffffffffffffffff1673ffffffffffffffffffffffffffffffffffffffff1681526020019081526020016000205411610398576040517f08c379a000000000000000000000000000000000000000000000000000000000815260040161038f90610729565b60405180910390fd5b6000600360003373ffffffffffffffffffffffffffffffffffffffff1673ffffffffffffffffffffffffffffffffffffffff168152602001908152602001600020549050600360003373ffffffffffffffffffffffffffffffffffffffff1673ffffffffffffffffffffffffffffffffffffffff168152602001908152602001600020600090558060026000828254610431919061080b565b925050819055506002600081548092919061044b90610887565b919050555060008054906101000a900473ffffffffffffffffffffffffffffffffffffffff1673ffffffffffffffffffffffffffffffffffffffff1663a9059cbb33836040518363ffffffff1660e01b81526004016104ab9291906106e0565b602060405180830381600087803b1580156104c557600080fd5b505af11580156104d9573d6000803e3d6000fd5b505050506040513d601f19601f820116820180604052508101906104fd91906105ad565b61053c576040517f08c379a000000000000000000000000000000000000000000000000000000000815260040161053390610769565b60405180910390fd5b50565b60015481565b600081359050610554816109f3565b92915050565b60008151905061056981610a0a565b92915050565b60008135905061057e81610a21565b92915050565b60006020828403121561059657600080fd5b60006105a484828501610545565b91505092915050565b6000602082840312156105bf57600080fd5b60006105cd8482850161055a565b91505092915050565b6000602082840312156105e857600080fd5b60006105f68482850161056f565b91505092915050565b6106088161083f565b82525050565b600061061b600f836107a4565b915061062682610929565b602082019050919050565b600061063e6010836107a4565b915061064982610952565b602082019050919050565b60006106616022836107a4565b915061066c8261097b565b604082019050919050565b60006106846005836107a4565b915061068f826109ca565b602082019050919050565b6106a38161087d565b82525050565b60006060820190506106be60008301866105ff565b6106cb60208301856105ff565b6106d8604083018461069a565b949350505050565b60006040820190506106f560008301856105ff565b610702602083018461069a565b9392505050565b600060208201905081810360008301526107228161060e565b9050919050565b6000602082019050818103600083015261074281610631565b9050919050565b6000602082019050818103600083015261076281610654565b9050919050565b6000602082019050818103600083015261078281610677565b9050919050565b600060208201905061079e600083018461069a565b92915050565b600082825260208201905092915050565b60006107c08261087d565b91506107cb8361087d565b9250827fffffffffffffffffffffffffffffffffffffffffffffffffffffffffffffffff03821115610800576107ff6108fa565b5b828201905092915050565b60006108168261087d565b91506108218361087d565b925082821015610834576108336108fa565b5b828203905092915050565b600061084a8261085d565b9050919050565b60008115159050919050565b600073ffffffffffffffffffffffffffffffffffffffff82169050919050565b6000819050919050565b60006108928261087d565b915060008214156108a6576108a56108fa565b5b600182039050919050565b60006108bc8261087d565b91507fffffffffffffffffffffffffffffffffffffffffffffffffffffffffffffffff8214156108ef576108ee6108fa565b5b600182019050919050565b7f4e487b7100000000000000000000000000000000000000000000000000000000600052601160045260246000fd5b7f5472616e73666572206661696c65640000000000000000000000000000000000600082015250565b7f4e6f7420656e6f75676820746f6b656e00000000000000000000000000000000600082015250565b7f546f6b656e20616d6f756e74206d75737420626520686967686572207468616e60008201527f2030000000000000000000000000000000000000000000000000000000000000602082015250565b7f4572726f72000000000000000000000000000000000000000000000000000000600082015250565b6109fc8161083f565b8114610a0757600080fd5b50565b610a1381610851565b8114610a1e57600080fd5b50565b610a2a8161087d565b8114610a3557600080fd5b5056fea26469706673582212208d02275bef0e01ad6dbf1a624a57a6ab4525ca8f945700b35b0ca1234b43651064736f6c63430008020033",
  "linkReferences": {},
  "deployedLinkReferences": {}
}